:04000000FEEF7FF0A0
:10100000006808CB00970122836808CB0097012273
:1010100083E8032307220721071507140713071284
:10102000071107000000000000040005000600078B
:1010300000E803292818191E22161C201412100F6C
:101040000D0E0C0B090A0806042602240167046F22
:10105000040F040804680407041004000460040179
:101060000207021402600200CA0EF66E100EF76E3E
:10107000000EF86E09006F00D4FF0AF009006F003F
:10108000D4FF0BF000EE82F110EE00F2EE6AE550B4
:10109000E150FCE1E250FAE100EE00F1820EEE6A6E
:1010A000E806FDE100EE60F0820EEE6AE806FDE182
:1010B00000EE01F0090EEE6AE806FDE1000161EFC5
:0C10C00008F061EF08F0FEEF7FF09945AA
:04FFFC0034EF08F0E6
:00000001FF
