:04000000FEEF7FF0A0
:10100000006808CB00970122836808CB0097012273
:1010100083000000000000C842000000000000C87B
:10102000420000803F0000204123072207210715CE
:10103000071407130712071107000000000000043F
:1010400000050006000700E803FF292818191E22E2
:10105000161C201412100F0D0E0C0B090A080604A2
:101060002602240167046F040F04080468040704BF
:101070001004000460040102070214026002FFFF72
:01108000006F
:10108200E40EF66E100EF76E000EF86E09006F0099
:10109200D4FF09F009006F00D4FF0AF000EED0F28D
:1010A20010EE00F2EE6AE550E150FCE1E250FAE1A6
:1010B20000EE00F2D00EEE6AE806FDE100EE00F16D
:1010C200D00EEE6AE806FDE100EE01F0080EEE6ACF
:1010D200E806FDE100016EEF08F06EEF08F0FEEFAA
:0410E2007FF09945BD
:04FFFC0041EF08F0D9
:00000001FF
